:100000000C9464000C94FA140C9421150C948C003C
:100010000C948C000C948C000C948C000C946D143B
:100020000C948C000C948C000C948C000C948C0020
:100030000C948C000C948C000C948C000C948C0010
:100040000C947A160C948C000C94EF010C941C0206
:100050000C948C000C948C000C948C000C948C00F0
:100060000C948C000C948C0002000000080002012B
:10007000000003040700000000000000000102046B
:10008000081020408001020408102001020408101A
:100090002004040404040404040202020202020311
:1000A00003030303030000000023002600290000CF
:1000B000000000250028002B00000000002400277D
:1000C000002A0000B0220F2311241FBECFEFD8E07A
:1000D000DEBFCDBF11E0A0E0B1E0E8E0FDE502C089
:1000E00005900D92A43FB107D9F722E0A4EFB1E04B
:1000F00001C01D92A13EB207E1F710E0C4E6D0E0D6
:1001000004C02197FE010E949223C236D107C9F78D
:100110000E94DE220C94E72D0C9400000E94AE2277
:100120000E94AE22FC01818D228D90E0805C9F4F69
:10013000821B91098F7399270895FC01918D828DFF
:10014000981731F0828DE80FF11D858D90E00895AC
:100150008FEF9FEF0895FC01918D828D981761F0CC
:10016000A28DAE0FBF2FB11D5D968C91928D9F5FBA
:100170009F73928F90E008958FEF9FEF0895FC0199
:10018000538D448D842F90E0252F30E0821B930BFC
:10019000541710F0CF9608950197089582E492E0E5
:1001A000892B49F080E090E0892B29F00E944202DF
:1001B00081110C9400000895FC01A48DA80FB92FA3
:1001C000B11DA35ABF4F2C91848D90E001968F737F
:1001D0009927848FA689B7892C93A089B1898C919E
:1001E000837080648C93938D848D981306C00288ED
:1001F000F389E02D80818F7D80830895CF93DF93F5
:10020000EC01888D81110FC0DF91CF9108950FB659
:1002100007FC0DC08C9185FF0AC0808185FF07C057
:10022000CE010E94DC00AA89BB89E889F9898C91FA
:1002300085FDEDCF808186FFEACFE6CFEF92FF927A
:100240000F931F93CF93DF93EC01F62E81E0888FFD
:100250009B8D8C8D98131AC0E889F989808185FF60
:1002600015C09FB7F894EE89FF896083E889F98902
:1002700080818370806480839FBF81E090E0DF9104
:10028000CF911F910F91FF90EF9008950B8D10E08B
:100290000F5F1F4F0F731127E02E8C8D8E1579F095
:1002A000EB8DEC0FFD2FF11DE35AFF4FF0829FB74E
:1002B000F8940B8FEA89FB8980818062DCCF0FB6CE
:1002C00007FCEBCFE889F989808185FFE6CFCE0175
:1002D0000E94DC00E2CFCF92DF92EF92FF921F9359
:1002E000CF93DF93EC016A017B01122FE889F98932
:1002F00082E08083C11481EED806E104F104A1F00C
:1003000060E079E08DE390E0A70196010E9446232A
:10031000215031094109510956954795379527953F
:10032000211580E1380798F0E889F989108260E8A2
:1003300074E88EE190E0A70196010E9446232150C7
:100340003109410951095695479537952795EC850F
:10035000FD853083EE85FF852083188EEC89FD892D
:100360001083EA89FB89808180618083EA89FB8927
:10037000808188608083EA89FB89808180688083AE
:10038000EA89FB8980818F7D8083DF91CF911F91E6
:10039000FF90EF90DF90CF900895CF93DF93EC0123
:1003A000E881F9810680F781E02D0995EA89FB89CA
:1003B00080818F7E8083EA89FB898081877F80832B
:1003C000EA89FB8980818F778083EA89FB89808134
:1003D0008F7D80838A8D898FDF91CF9108952F93B0
:1003E0002FB72F938F939F93EF93FF93E091040286
:1003F000F09105028081E0910A02F0910B0282FDEA
:1004000019C0908180910D028F5F8F7320910E0231
:10041000821741F0E0910D02F0E0EC50FE4F958F15
:1004200080930D02FF91EF919F918F912F912FBF9C
:100430002F9118958081F6CF1F920F920FB60F92D1
:1004400011242F933F934F935F936F937F938F93D9
:100450009F93AF93BF93EF93FF9384EF91E00E943C
:10046000DC00FF91EF91BF91AF919F918F917F91B0
:100470006F915F914F913F912F910F900FBE0F9011
:100480001F90189584EF91E00E9492009C0181E0FA
:10049000232B09F480E0089508958F929F92AF92E4
:1004A000BF92CF92DF92EF92FF920F931F93CF9361
:1004B000DF938C01D62FC72F4C0182E0880E911C50
:1004C0005801E5E0AE0EB11CE12CF12CF401619174
:1004D0004F014AE050E08D2F9C2F0E94F60B6C01DB
:1004E0006EE28D2F9C2F0E94920A8C0D9D1DE80EAE
:1004F000F91E8A149B0451F74AE050E0F801658127
:100500008D2F9C2F0E94F60B8E0D9F1DDF91CF919A
:100510001F910F91FF90EF90DF90CF90BF90AF9021
:100520009F908F900895FC0187E291E091838083F2
:10053000128213821482158208950F93FC0187E2C0
:1005400091E09183808362834383248305830F91A9
:100550000895FC0187E291E0918380834283538375
:10056000648375830895FB01DC0187E291E08D933C
:100570009D9384E001900D928A95E1F70895CF93C1
:10058000DF93FC01DB0120E080E090E04AE03D9158
:10059000311107C02330C1F4858381E0DF91CF9111
:1005A000089550ED530F5A3088F4489FB001499F89
:1005B000700D1124CB01C097830F911D37FD9A95C3
:1005C000811531E0930718F380E0E8CF3E32E1F780
:1005D0002330D1F3EF01C20FD11D8A832F5F80E05A
:1005E00090E0D5CF9C01FB01DC01129684E00190E4
:1005F0000D928A95E1F7C9010895FC014283538366
:100600006483758308959B01BC016E5F7F4F44E056
:1006100050E0C9010E94E2289C0181E0232B09F0EF
:1006200080E00895CF93DF93C1E9D2E069817A81B8
:100630004AE050E084EF91E00E94170C6B817C81CE
:100640004AE050E084EF91E00E94170C6D817E81BA
:100650004AE050E084EF91E00E94170C6F817885AA
:100660004AE050E084EF91E00E94170C69857A859A
:100670004AE050E084EF91E0DF91CF910C94170CA9
:100680009C01892B11F421E030E0C9010C9408266B
:100690000C9440030C9440030C944803CB01089540
:1006A000CB0108950C949E260C9452030C94520393
:1006B0000C9454030C9452030C945403089508951D
:1006C000FC0128E080E0880FA681B7813C919485E9
:1006D000392331118F5FA481B5813C91932B9C9379
:1006E00067FF06C0A281B3819C913485932B9C93B4
:1006F000A085B1859C913585932B9C93A085B18570
:100700003C919585909593239C93A281B3813C91D4
:100710009485909593239C93A481B5813C91948575
:10072000909593239C93660F2A9569F60895BF923E
:10073000CF92DF92EF92FF920F931F93CF93DF93AD
:100740007C016B01C42F122FB32EF894FC0183851A
:10075000978560E0911581F10E94241684EF91E065
:100760000E942C176C2FC7010E946003C12FDB2D44
:100770000C0F1D2F111D0C171D07A1F461E0F701CF
:1007800083850E94241684EF91E00E942C177894B0
:10079000DF91CF911F910F91FF90EF90DF90CF905D
:1007A000BF9008956881C7010E946003C114D104FD
:1007B00009F488832196DFCF0E9424168091B90224
:1007C000811581F09FB7F8948091B902813069F565
:1007D0008DB38093B7022DB38091B80280958223A8
:1007E0008DBB9FBF80E58CBD1DBCCEBD00000DB490
:1007F00007FEFDCF8EB5E12FFB2D8E2F811B8017BD
:10080000B8F08091B902811551F09FB7F8948091AA
:10081000B7022091B9022130C1F48DBB9FBF61E0C6
:10082000F70183850E942416B2CF9093B702DACFE6
:1008300080818EBD00000DB407FEFDCF8EB5C114C2
:10084000D10409F480833196D8CF8FBFE8CFEF92DF
:10085000FF920F931F93CF93DF93D82FC92FF62EBC
:10086000172FE42E211541F000E020E030E041EEAA
:1008700061E070E00E9497030E2D2F2D312F49EA81
:1008800061E070E08D2F9C2F0E949703DF91CF9144
:100890001F910F91FF90EF9008950F93742F352FB4
:1008A000022F462F4F71272F60E070E00E949703C0
:1008B0000F910895CF93DF930F92CDB7DEB721E06C
:1008C000AE014F5F5F4F0E944D0489810F90DF9111
:1008D000CF91089567E00E945A0486958770089525
:1008E0000F93742F352F022F6F71462F4062272FE1
:1008F00061E070E00E9497030F910895CF93DF931A
:100900000F92CDB7DEB7498321E0AE014F5F5F4F55
:100910000E9470040F90DF91CF910895CF92DF92E3
:10092000EF92FF920F931F93CF93DF93EC016B0134
:100930007A01890167E00E945A04982F9072F601AB
:100940009083982F9071F70190838074F8018083D1
:100950008E85811569F040E767E0CE01DF91CF9188
:100960001F910F91FF90EF90DF90CF900C947E0439
:10097000DF91CF911F910F91FF90EF90DF90CF907B
:100980000895CF93DF93EC018889811521F060E011
:100990008A850E94241660E0CE010E945A04482FE6
:1009A0004D7F60E0CE01DF91CF910C947E040F93D8
:1009B0001F93CF93DF93EC01062F142F60E08A85FD
:1009C0000E942416402F65E0CE010E947E0400E0C4
:1009D00061E08A850E94241680E991E00E942C172C
:1009E00060E08A850E94241669E0CE010E945A04C4
:1009F00081110F5F8FEF810F111106C0802FDF91E2
:100A0000CF911F910F910895182FE2CFFF920F936E
:100A10001F93CF93DF9300D0CDB7DEB7F82E192FF9
:100A2000062F8DB79EB79A838983861B91090FB6CF
:100A3000F8949EBF0FBE8DBF2DB73EB72F5F3F4FBF
:100A400041E660E070E08F2D912F0E94970367E0F0
:100A50008F2D912F0E945A04482F86FF06C04064B4
:100A600067E08F2D912F0E947E0489819A810FB6B5
:100A7000F8949EBF0FBE8DBF0F900F90DF91CF9166
:100A80001F910F91FF900895DF92EF92FF920F93C5
:100A90001F93CF93DF930F92CDB7DEB7F82E192FA8
:100AA000D62EE72E01E09E012F5F3F4F40E660E02B
:100AB00070E00E94970309812D2D3E2D41E660E0F4
:100AC00070E08F2D912F0E94970367E08F2D912F5B
:100AD0000E945A0486FF0FC0482F406467E08F2DA4
:100AE000912F0F90DF91CF911F910F91FF90EF9079
:100AF000DF900C947E040F90DF91CF911F910F91A6
:100B0000FF90EF90DF900895FF920F931F93CF9384
:100B1000DF930F92CDB7DEB7F82E192F01E09E01BB
:100B20002F5F3F4F40E660E070E00E9497038981AD
:100B30008132B8F000E020E030E042EE61E070E0A9
:100B40008F2D912F0E94970367E08F2D912F0E9488
:100B50005A04482F406767E08F2D912F0E947E0432
:100B600080E00F90DF91CF911F910F91FF9008953A
:100B7000CF93DF93D82FC92F0E946A04811106C03A
:100B80008D2F9C2FDF91CF910C94840580E0DF9115
:100B9000CF9108950F931F93CF93DF9300D00F92BF
:100BA000CDB7DEB78A839B83EA81FB8116861AE57F
:100BB00067E18A819B810E945A04F82FF071F983C2
:100BC00084FD48C0EA81FB818089811571F061E074
:100BD00082850E9424168AE090E00E942C1760E033
:100BE000EA81FB8182850E942416EA81FB8181894A
:100BF00092890E942C1767E08A819B810E945A0487
:100C000085FF09C040E267E08A819B810E947E04E3
:100C10001A9571F612C084FFFBCF00E020E030E0AF
:100C200041EE61E070E08A819B810E94970340E180
:100C300067E08A819B810E947E0481E0EA81FB81DA
:100C4000868789810F900F900F90DF91CF911F9130
:100C50000F910895F1E0F983F0CFCF93DF93EC018A
:100C60000E94CA0560E08A850E9424164BE060E07D
:100C7000CE010E947E0461E08A850E94241665E010
:100C800070E080E090E00E94F31660E0CE010E94E8
:100C90005A04982F81E09B3009F080E0DF91CF91DA
:100CA00008950F931F93CF93DF93EC018889682BEE
:100CB000611117C00E94CE160F89188D298D3A8DAB
:100CC000601B710B820B930B2B893C896217730796
:100CD00081059105D8F00E94CE166F8B788F898F91
:100CE0009A8F60E0CE010E945A048B3019F0CE0139
:100CF0000E942D06CE010E946A04813039F4CE0193
:100D0000DF91CF911F910F910C94840580E0DF91CA
:100D1000CF911F910F91089561E00C945106CF92ED
:100D2000DF92EF92FF920F931F93CF93DF9300D048
:100D300000D00F92CDB7DEB77C01062F6A01122FCB
:100D40008FEF9FEFF701968B858B81E08687228559
:100D50009385291301C080E0F701808B64E670E081
:100D600080E090E00E94F316412F1E3708F04DE717
:100D700065E0C7010E947E04C114D10409F054C08B
:100D80004EE066E0C7010E947E044FE164E0C701C7
:100D90000E947E0428E532E080EB94E0F701328B7C
:100DA000218B948B838B81E0898382E08A8383E02B
:100DB0008B8384E08C830D8325E0AE014F5F5F4F12
:100DC0006BE0C7010E94700443E06CE1C7010E9420
:100DD0007E0447E06DE1C7010E947E0400E020E050
:100DE00030E042EE61E070E0C7010E94970320E02E
:100DF00030E041EE61E070E0C7010E94970340E7F8
:100E000067E0C7010E947E04C7010F900F900F900A
:100E10000F900F90DF91CF911F910F91FF90EF9066
:100E2000DF90CF900C942D06CA94CD2879F446E03B
:100E300066E0C7010E947E044FE164E0C7010E94A2
:100E40007E0428E532E084EA96E0A8CF46E266E038
:100E5000C7010E947E044FE564E0C7010E947E0442
:100E600020E436E088E893E199CFCF92DF92EF92C9
:100E7000FF920F931F93CF93DF93EC01F62E842FF5
:100E80004A872B871F8661E00E94EA1561E08B8507
:100E90000E94EA1561E08B850E942416C11469F056
:100EA0008AE00E945316D82E0E94B70D8B858A3097
:100EB00021F06D2D8AE00E9424162E2DA8016F2DA1
:100EC000CE01DF91CF911F910F91FF90EF90DF90B6
:100ED000CF900C948F06CF92DF92EF92FF920F93F8
:100EE0001F93CF93DF93EC01D62EC42EF22E2A87C8
:100EF0002B8781E08F8760E0842F0E94EA1561E0F4
:100F00008F2D0E94EA1561E08F2D0E9424168C2DF2
:100F100090E0DC01AF56BF4FFD012491E22FF0E0DD
:100F2000EE0FFF1FE155FF4F259135913B832A833B
:100F3000FD012491E22FF0E0EE0FFF1FE754FF4F79
:100F4000259135913D832C83FD01A491EA2FF0E09A
:100F5000EE0FFF1FEB55FF4F259135913F832E83F9
:100F6000FC01E358FF4FE491EC878F2D90E0FC01EA
:100F7000EF56FF4FE491F0E0EE0FFF1FE155FF4FFA
:100F8000259135913987288783589F4FFC0184919B
:100F90008D872E2DA8016D2DCE01DF91CF911F9150
:100FA0000F91FF90EF90DF90CF900C948F06CF922F
:100FB000DF92EF92FF920F931F93CF93DF9300D0B6
:100FC00000D00F92CDB7DEB77C016A01862F90E08A
:100FD000F7012589368962171306D9F0968B858B20
:100FE00081E0898382E08A8383E08B8384E08C8341
:100FF0006D8325E0AE014F5F5F4F60E1C7010E9446
:10100000700425E0AE014F5F5F4F6AE0C7010E94A8
:10101000700460E0C7010E945A048A3081F060E0E9
:10102000F70182850E9424164AE060E0C7010E9411
:101030007E0465E070E080E090E00E94F31667E1D6
:10104000C7010E945A04182FCD2859F481FF09C006
:1010500000E020E030E042EE61E070E0C7010E9475
:10106000970315FF10C0C7010F900F900F900F90BE
:101070000F90DF91CF911F910F91FF90EF90DF9034
:10108000CF900C94CA050F900F900F900F900F9077
:10109000DF91CF911F910F91FF90EF90DF90CF9054
:1010A0000895BF92CF92DF92EF92FF920F931F931A
:1010B000CF93DF93D82FC92F7A01B22E6801A801F0
:1010C0000E94D70740E367E08D2F9C2F0E947E048B
:1010D0000B2D970140EBCA94CD2809F040EA61E05E
:1010E00070E08D2F9C2F0E9497038D2F9C2FDF91F6
:1010F000CF911F910F91FF90EF90DF90CF90BF9015
:101100000C94CA05AF92BF92DF92EF92FF920F93B9
:101110001F93CF93DF93EC017A01D22E5801A801DF
:101120000E94D7070D2D970140EBAA94AB2809F038
:1011300040EA61E070E0CE010E9497038889811542
:10114000A9F061E08A850E9424168AE090E00E945E
:101150002C1760E08A85DF91CF911F910F91FF904E
:10116000EF90DF90BF90AF900C942416DF91CF9159
:101170001F910F91FF90EF90DF90BF90AF90089577
:101180009F92AF92BF92CF92DF92EF92FF920F9316
:101190001F93CF93DF9300D000D000D0CDB7DEB740
:1011A0005C01942E8E010F5F1F4FC8010E943C19F5
:1011B0006AEC71E0C8010E94A31B87E0E82EF12CC5
:1011C0006801092D10E0B8010E2C02C075956795D5
:1011D0000A94E2F761707727C6010E94F01B81E054
:1011E000E81AF10880F7F50180819181009719F0E4
:1011F000B6010E94BB0AC6010E94C4180F900F904E
:101200000F900F900F900F90DF91CF911F910F9142
:10121000FF90EF90DF90CF90BF90AF909F90089598
:101220004F925F926F927F928F929F92AF92BF92F6
:10123000CF92DF92EF92FF920F931F93CF93DF93A2
:10124000CDB7DEB72B970FB6F894DEBF0FBECDBF7C
:101250008C0160E00E945A04482F65E471E0C801E7
:101260000E94C00861E0C8010E945A04482F6CE443
:1012700071E0C8010E94C00862E0C8010E945A04DF
:10128000482F62E571E0C8010E94C00863E0C80110
:101290000E945A04482F6CE571E0C8010E94C00802
:1012A00064E0C8010E945A04482F65E671E0C80155
:1012B0000E94C00865E0C8010E945A04482F60E7F8
:1012C00071E0C8010E94C00866E0C8010E945A048B
:1012D000482F66E771E0C8010E94C00867E0C801B6
:1012E0000E945A04482F61EA71E0C8010E94C008B8
:1012F00068E0C8010E945A04482F6FE771E0C801F6
:101300000E94C00861E1C8010E945A04482F6AE89F
:1013100071E0C8010E94C00862E1C8010E945A043D
:10132000482F63E971E0C8010E94C00867E1C80165
:101330000E945A04482F6CE971E0C8010E94C0085D
:101340006CE1C8010E945A04482F68EA71E0C801A4
:101350000E94C0086DE1C8010E945A04482F6EEA3D
:1013600071E0C8010E94C00866EB71E0CE010196F1
:101370003C010E943C197E0197E0E90EF11C25E03A
:10138000A70160E1C8010E944D0457016E01EBE026
:10139000CE0ED11C47012701F40161914F01C30119
:1013A0000E94C51B6CE2C3010E94B21B8C149D04F9
:1013B00099F76B85C3010E94C51B6FEB71E0C301F8
:1013C0000E94A31B25E0A2016AE0C8010E944D040F
:1013D000F70161917F01C3010E94C51B6CE2C3014B
:1013E0000E94B21BEC14FD0499F76B85C3010E94A7
:1013F000C51B6CEC71E0C3010E94A31B25E0A20198
:101400006BE0C8010E944D04F50161915F01C301C9
:101410000E94C51B6CE2C3010E94B21BAC14BD0448
:1014200099F76B85C3010E94C51BF80180819181EA
:10143000009719F0B3010E94BB0AC3010E94C418AF
:101440002B960FB6F894DEBF0FBECDBFDF91CF91C4
:101450001F910F91FF90EF90DF90CF90BF90AF90D2
:101460009F908F907F906F905F904F900895CF9254
:10147000DF92EF92FF920F931F93CF93DF937C0144
:101480006A0100E010E00C151D0551F4C801DF9160
:10149000CF911F910F91FF90EF90DF90CF90089523
:1014A000EB01D701ED91FC910190F081E02D699164
:1014B000C7010995892B51F30F5F1F4FBE01E3CF81
:1014C000EF92FF920F931F93CF93DF938C017B01D9
:1014D000C0E0D0E0F701EC0FFD1F6491611561F0F1
:1014E000D801ED91FC910190F081E02DC8010995A2
:1014F000892B11F02196EECFCE01DF91CF911F9174
:101500000F91FF90EF900895DC01FB01448155811C
:1015100060817181ED91FC910280F381E02D09944D
:101520000C941A23DC01ED91FC910190F081E02DE7
:101530000994DB01ED91FC9111970190F081E02D70
:10154000BC01CD01099469ED71E00C941A230F934D
:101550001F93CF93DF93D82FC92F0E94600A8C016D
:101560008D2F9C2F0E94A30A800F911FDF91CF9196
:101570001F910F9108950F931F93CF93DF93D82F4F
:10158000C92F0E94840A8C018D2F9C2F0E94A30AD0
:10159000800F911FDF91CF911F910F9108950F93AD
:1015A0001F93CF93DF93D82FC92F0E941A238C014A
:1015B0008D2F9C2F0E94A30A800F911FDF91CF9146
:1015C0001F910F9108950F931F93CF93DF93D82FFF
:1015D000C92F0E94920A8C018D2F9C2F0E94A30A72
:1015E000800F911FDF91CF911F910F9108950F935D
:1015F0001F93CF93DF93D82FC92F0E94990A8C0194
:101600008D2F9C2F0E94A30A800F911FDF91CF91F5
:101610001F910F9108952F923F924F925F926F9278
:101620007F928F929F92AF92BF92CF92DF92EF9272
:10163000FF920F931F93CF93DF93CDB7DEB7A197A0
:101640000FB6F894DEBF0FBECDBF1C01142F052FBF
:10165000B62EA72E19A2223008F42AE04E0181E20C
:10166000880E911CC22ED12CE12CF12C612F702FF1
:101670008B2D9A2DA70196010E944623412E502EB4
:101680006B2C7A2C122F032FB42EA52E6A3034F532
:10169000605DF40162934F014C145D046E047F049D
:1016A00028F7BF01C1010E941A23A1960FB6F89432
:1016B000DEBF0FBECDBFDF91CF911F910F91FF9085
:1016C000EF90DF90CF90BF90AF909F908F907F90E2
:1016D0006F905F904F903F902F900895695CD9CFA5
:1016E000CF92DF92EF92FF920F931F93CF93DF93EE
:1016F000EC016A017B01F901EF2B79F4E881F981B2
:101700000190F081E02D642FDF91CF911F910F9117
:10171000FF90EF90DF90CF9009942A303105E9F4E3
:101720002AE0F7FE1AC06DE20E94920A8C0144275B
:101730005527BA014C195D096E097F092AE0CE01CF
:101740000E940B0B800F911FDF91CF911F910F9182
:10175000FF90EF90DF90CF900895B701A601CE01E2
:10176000DF91CF911F910F91FF90EF90DF90CF907D
:101770000C940B0B9A01AB01770F660B770B0C9453
:10178000700B0F931F93CF93DF93D82FC92F0E9415
:10179000BA0B8C018D2F9C2F0E94A30A800F911FE2
:1017A000DF91CF911F910F9108950F931F93CF93C6
:1017B000DF93D82FC92F0E94700B8C018D2F9C2F87
:1017C0000E94A30A800F911FDF91CF911F910F916B
:1017D0000895DC01F901EF2B39F4ED91FC910190B2
:1017E000F081E02D642F09940C940B0B9A01462F85
:1017F00050E060E070E00C94E90B0F931F93CF93DF
:10180000DF93D82FC92F0E94F60B8C018D2F9C2FB0
:101810000E94A30A800F911FDF91CF911F910F911A
:1018200008959A01AB0160E070E00C94E90B0F930E
:101830001F93CF93DF93D82FC92F0E94110C8C01D7
:101840008D2F9C2F0E94A30A800F911FDF91CF91B3
:101850001F910F9108950F931F93CF93DF93D82F6C
:10186000C92F0E94E90B8C018D2F9C2F0E94A30A87
:10187000800F911FDF91CF911F910F9108952F92AB
:101880003F924F925F926F927F928F929F92AF9210
:10189000BF92CF92DF92EF92FF920F931F93CF935D
:1018A000DF93CDB7DEB7A6970FB6F894DEBF0FBEB5
:1018B000CDBF8DA39EA36A017B01022FA7019601D4
:1018C000C701B6010E94DE256CED71E081112BC0CD
:1018D000D701C601BF7789A39AA3ABA3BCA32FEFFF
:1018E0003FEF4FE75FE7BC01CD010E94DE2581118C
:1018F0000EC02FEF3FEF4FE75FE769A17AA18BA101
:101900009CA10E94142460EE71E0181664F02FEF81
:101910003FEF4FE75FE4C701B6010E946C25181640
:10192000F4F464EE71E08DA19EA1A6960FB6F89432
:10193000DEBF0FBECDBFDF91CF911F910F91FF9002
:10194000EF90DF90CF90BF90AF909F908F907F905F
:101950006F905F904F903F902F900C941A232FEF31
:101960003FEF4FE75FECC701B6010E94142487FDEB
:10197000D8CF20E030E0A901C701B6010E941424AD
:10198000212C312C87FF0AC06DE28DA19EA10E94FF
:10199000920A1C01F7FAF094F7F8F09410E060E076
:1019A00070E080E09FE3011362C0A70196016D83A0
:1019B0007E838F8398876D817E818F8198850E9439
:1019C000A823F62EC72ED82E192F862E972EA82E96
:1019D000B92EC501B4010E948B244B015C012AE0A1
:1019E000AB01BC018DA19EA10E940B0B280E391EDC
:1019F000011519F1B401C5010E94BA2469877A87DB
:101A00008B879C8729853A854B855C85FD86CE86AC
:101A1000DF86188B6D857E858F8598890E94A72328
:101A2000162FD72EC82EB92E6EE28DA19EA10E9430
:101A3000920A280E391E01112AC0C101A6960FB6BE
:101A4000F894DEBF0FBECDBFDF91CF911F910F91F4
:101A5000FF90EF90DF90CF90BF90AF909F908F90CE
:101A60007F906F905F904F903F902F90089520E06F
:101A700030E040E251E469837A838B839C836981FF
:101A80007A818B819C810E9419241F5F8CCF20E07A
:101A900030E040E251E4198BDA8ACB8ABC8A69894A
:101AA0007A898B899C890E947125B62EC72ED82EE3
:101AB000192F6D8B7E8B8F8B988F6D897E898F8987
:101AC000988D0E948B242B014AE050E08DA19EA1AD
:101AD0000E94110C280E391EB20180E090E00E9495
:101AE000BA24698F7A8F8B8F9C8F298D3A8D4B8D7D
:101AF0005C8DBD8ECE8EDF8E18A36D8D7E8D8F8D0D
:101B000098A10E94A723162FD72EC82EB92E0150B8
:101B100092CFCF92DF92EF92FF926A017B01B701E1
:101B2000A601FF90EF90DF90CF900C943F0CCF92E6
:101B3000DF92EF92FF920F931F93CF93DF93D82FF3
:101B4000C92F6A017B01B701A6010E943F0C8C01DD
:101B50008D2F9C2F0E94A30A800F911FDF91CF91A0
:101B60001F910F91FF90EF90DF90CF900895CF934A
:101B7000CFB7F8948091BA02811128C0EBE9F0E068
:101B80008491E7E8F0E09491E82FF0E0EE0FFF1F7A
:101B9000E754FF4FA591B591EC91E923E11104C001
:101BA00061E08AE00E94241661E08AE00E94EA1562
:101BB0008CB580618CBD8CB580648CBD61E08DE09E
:101BC0000E94EA1561E08BE00E94EA158091BA025A
:101BD0008F5F8093BA02CFBFCF9108959FB7F894DB
:101BE0008091BA02811107C08CB58F7B8CBD109299
:101BF000B9029FBF089581508093BA028111F9CF35
:101C0000F3CF2FB7F89491E0811539F092E081304D
:101C100021F082E08093B90290E08091B802892B94
:101C20008093B8028091B902811103C081E0809352
:101C3000B9022FBF08959091B9029230A9F02FB741
:101C4000F894811591F091E0813009F090E0892FAE
:101C5000880F80959091B80289238093B8028111F2
:101C600002C01092B9022FBF089581E0F2CFCF9247
:101C7000DF92EF92FF920F931F93CF93DF93EC01CC
:101C80000E94C216688779878A879B87E881F981D5
:101C90000284F385E02DCE0109958C0197FF15C0D4
:101CA0000E94C216C884D984EA84FB846C197D0919
:101CB0008E099F09CC80DD80EE80FF806C157D054C
:101CC0008E059F0518F30FEF1FEFC801DF91CF912D
:101CD0001F910F91FF90EF90DF90CF900895CF92DA
:101CE000DF92EF92FF920F931F93CF93DF93EC015C
:101CF0000E94C216688779878A879B87E881F98165
:101D00000484F585E02DCE0109958C0197FF15C05F
:101D10000E94C216C884D984EA84FB846C197D09A8
:101D20008E099F09CC80DD80EE80FF806C157D05DB
:101D30008E059F0518F30FEF1FEFC801DF91CF91BC
:101D40001F910F91FF90EF90DF90CF900895DF9259
:101D5000EF92FF920F931F93CF93DF938C017B0140
:101D6000D42EC8010E946F0EEC01CF3FDC07F1F0CA
:101D7000CD32D105D9F0CE01C0970A97B8F0D11471
:101D800019F0CE32D10591F0A1E0EA16F10461F02C
:101D9000B2E0EB16F104A9F4CD30D10591F07CF45A
:101DA000CE010997029768F0CFEFDFEFCE01DF9108
:101DB000CF911F910F91FF90EF90DF900895A09722
:101DC00099F7D801ED91FC910284F385E02DC801CB
:101DD0000995C7CFFC0144835583668377830895B3
:101DE0009F92AF92BF92CF92DF92EF92FF920F93AA
:101DF0001F93CF93DF935C01042F40E00E94A70E56
:101E0000EC01C12CD12C7601CF3FDC07F1F1912CF4
:101E1000002E000C110B0C171D07D9F0CD32D10587
:101E200009F441C0CE01C0970A9798F4AAE0B0E047
:101E3000A70196010E9487236E01DD0FEE08FF08BF
:101E4000C60ED71EE81EF91EA0E3CA1AD108E10883
:101E5000F108D501ED91FC910284F385E02DC501D7
:101E60000995C5010E946F0EEC01C0970A9798F280
:101E70000C171D0771F3911441F0F094E094D09485
:101E8000C094C11CD11CE11CF11CC701B601DF913B
:101E9000CF911F910F91FF90EF90DF90CF90BF9067
:101EA000AF909F90089599249394D3CF2F923F920F
:101EB0004F925F926F927F928F929F92AF92BF925A
:101EC000CF92DF92EF92FF920F931F93CF93DF9306
:101ED000CDB7DEB760970FB6F894DEBF0FBECDBFAB
:101EE0001C01842E41E00E94A70E8F87988B2F85BE
:101EF00038892F3F3F4F09F4ADC0A12CB12C00E829
:101F00001FE3C12CD12C760119821E86082C000CEF
:101F10009908AF85B8898A169B06A1F1AD32B10543
:101F200009F492C0AE32B10509F491C0CD01C09759
:101F30000A9740F5AAE0B0E0A70196010E94872326
:101F40002F8538896901330FEE08FF08C60ED71EAA
:101F5000E81EF91E30E3C31AD108E108F1088981AF
:101F6000811581F02DEC3CEC4CEC5DE3AA82BB8248
:101F70000C831D836A817B818C819D810E947125E8
:101F80005B018C01D101ED91FC910284F385E02D80
:101F9000C1010995C1010E946F0E8F87988B8F85B3
:101FA0009889C0970A9708F4B4CF2F8538892E32C4
:101FB000310521F43981311509F4ABCF8F8598892A
:101FC00088169906F9F29E85911541F0F094E094F7
:101FD000D094C094C11CD11CE11CF11CC701B601F6
:101FE0000E94BC24A981A11571F025013801A3012B
:101FF00092016E837F83888799876E817F81888530
:1020000099850E9471256A877B878C879D876A8561
:102010007B858C859D8560960FB6F894DEBF0FBEDC
:10202000CDBFDF91CF911F910F91FF90EF90DF9087
:10203000CF90BF90AF909F908F907F906F905F9068
:102040004F903F902F90089591E09E879BCFA1E005
:10205000A98398CF60E070E080E090E0D4CF8F92C9
:102060009F92AF92BF92CF92DF92EF92FF920F9327
:102070001F93CF93DF93982E892EF62EE72E5A01C9
:1020800000E010E00A151B0571F4C801DF91CF9143
:102090001F910F91FF90EF90DF90CF90BF90AF9086
:1020A0009F908F900895892D982D0E94370E6C0176
:1020B0008FEFC816D80649F3CF2DDE2DC9920F5FDA
:1020C0001F4FFC2EED2EDECF6F927F928F929F924C
:1020D000AF92BF92CF92DF92EF92FF920F931F9336
:1020E000CF93DF93782E692ED42EC52E490100E0C0
:1020F00010E0A62E660FBB080815190581F4C8016B
:10210000DF91CF911F910F91FF90EF90DF90CF90D3
:10211000BF90AF909F908F907F906F900895872D84
:10212000962D0E94370E7C018FEFE816F80639F3E2
:10213000AE14BF0421F3CD2DDC2DE9920F5F1F4FAC
:10214000DC2ECD2ED9CFEF92FF920F931F93CF931A
:10215000DF93D82FC92FF62EE72E6BED71E00E948A
:102160003C198F2D9E2D0E94370E8C010F3F1007BA
:1021700049F48D2F9C2FDF91CF911F910F91FF90EC
:10218000EF900895602F8D2F9C2F0E94B21BE9CFF6
:10219000CF92DF92EF92FF920F931F93CF93DF9333
:1021A0008C01D62EC72EE42E6BED71E00E943C19F7
:1021B0008D2D9C2D0E94370EEC010E2C000CFF087B
:1021C000CF3FDC0719F0EC16FD0651F4C801DF9192
:1021D000CF911F910F91FF90EF90DF90CF900895D6
:1021E0006C2FC8010E94B21B8D2D9C2D0E94370EB2
:1021F000EC01E6CF4F925F926F927F928F929F9207
:10220000AF92BF92CF92DF92EF92FF920F931F9304
:10221000CF93DF934C018B0126E0249F5001259F33
:10222000B00C1124A60EB71EFB01EA15FB0518F130
:10223000C4010E94370EEC01CF3FDC0769F1F801C1
:10224000EA15FB05A8F76081718184819581DB0126
:10225000A80FB91F2C91022E001C00082C170D0688
:1022600079F50196958384832281338182179307C0
:1022700031F03696E5CF82819381892BF9F4E01B0A
:10228000F10BF595E7958BEA9AEAE89FE001E99F63
:10229000D00DF89FD00D1124CE01DF91CF911F9169
:1022A0000F91FF90EF90DF90CF90BF90AF909F90F5
:1022B0008F907F906F905F904F9008953696B5CF36
:1022C0000097B9F241E050E09C012150310935837B
:1022D0002483DB01A20FB31FAC910A2E001C00085F
:1022E000AC170D0619F52115310529F481E090E0B0
:1022F00095838483BECF7B016B01C40ED51E412C18
:10230000512CD7016D907D01D6017D906D01671034
:1023100006C0BFEF4B1A5B0A4216530690F3241512
:10232000350531F34F5F5F4FC901CECF4F5F5F4F30
:1023300021153105C9F79DCFEF92FF920F931F939F
:10234000CF93DF93CDB7DEB72C970FB6F894DEBFEF
:102350000FBECDBFF9013097F9F41E821D8269834B
:102360007A834B835C8341E050E0BE016F5F7F4F17
:102370000E94FA109C0181E0232B09F080E02C964A
:102380000FB6F894DEBF0FBECDBFDF91CF911F9186
:102390000F91FF90EF9008957E0125E0E20EF11C71
:1023A00028E0D7011D922A95E9F769837A834B8348
:1023B0005C83F887EF8309871A8742E050E0D5CF26
:1023C0000F931F939A01FA0101900020E9F73197CA
:1023D0008F01041B150BFB0101900020E9F73197D9
:1023E000AF01461B570B0E949C111F910F9108953E
:1023F000CF93DF9300D000D000D0CDB7DEB71E82E0
:102400001D827A8369835C834B8341E050E0BE0187
:102410006F5F7F4F0E94FA109C0181E0232B09F02F
:1024200080E00F900F900F900F900F900F90DF9122
:10243000CF910895CF93DF9300D000D000D0CDB7D7
:10244000DEB7FB0101900020E9F73197E61BF70B9F
:102450001E821D827A836983FC83EB8341E050E016
:10246000BE016F5F7F4F0E94FA109C0181E0232B19
:1024700009F080E00F900F900F900F900F900F9049
:10248000DF91CF9108954F925F926F927F928F92DA
:102490009F92AF92BF92CF92DF92EF92FF920F93F3
:1024A0001F93CF93DF9300D000D00F92CDB7DEB74C
:1024B0008B0129013A0190910001891308C0E8E6D7
:1024C000F0E094919D839D8197FD0BC048C09F3F94
:1024D00041F480930001E8E6F0E094919D839F3FF2
:1024E000B1F40F900F900F900F900F90DF91CF915C
:1024F0001F910F91FF90EF90DF90CF90BF90AF9022
:102500009F908F907F906F905F904F9008959D81E6
:10251000913009F4CEC0923009F4F1C09111D3CFBB
:1025200014BC15BC94B5926094BD95B5916095BDF1
:10253000282F30E0F901EF56FF4FE491F0E0EE0F65
:10254000FF1FE155FF4F459155915093CC024093A9
:10255000CB02F901E358FF4FE491E093CA0261E036
:102560000E94EA154801A12CB12C60E072E18AE7D3
:1025700090E0A50194010E94462329833A834B836E
:102580005C83215031094109510969017A018D812A
:102590008D7F811119C1211531404105510508F484
:1025A000D4C060E472E48FE090E0A50194010E9441
:1025B0004623215031094109510969017A019D8160
:1025C000923009F04BC1211531404105510508F405
:1025D000F1C060E970ED83E090E0A50194010E94F4
:1025E0004623215031094109510969017A01211518
:1025F00031404105510508F439C168E478EE81E0C5
:1026000090E0A50194010E9446232150310941091F
:10261000510969017A018D81811509F417C12115CC
:1026200031404105510508F4CDC064E274EF80E00B
:1026300090E0A50194010E944623215031094109EF
:10264000510969017A0185E02115314041055105A3
:1026500008F4B1C062E17AE780E090E0A50194015E
:102660000E944623215031094109510969017A012B
:102670009D8184E0911186E0C11491E0D906E104C6
:10268000F10408F463C0C980DA80EB80FC809AE032
:10269000F694E794D794C7949A95D1F781E0C81A35
:1026A000D108E108F1089D8187E0911184C085E09F
:1026B00050C010928000109281009091810098602B
:1026C0009093810090918100916090938100282FD8
:1026D00030E0F901EF56FF4FE491F0E0EE0FFF1FFD
:1026E000E155FF4F459155915093C5024093C40267
:1026F000F901E358FF4FE491E093C30230CF109209
:10270000B0001092B1009091B00092609093B00030
:102710009091B10091609093B100282F30E0F901C1
:10272000EF56FF4FE491F0E0EE0FFF1FE155FF4F32
:10273000459155915093BE024093BD02F901E35873
:10274000FF4FE491E093BC020ACF81E09D8191119B
:1027500032C095B5987F892B85BD2FEF3FEFA9013A
:10276000411451046104710469F0D801AA0FBB1F20
:10277000A30192010E94872328EE33E040E050E05D
:102780000E9446239D81913009F43EC0923009F4A5
:102790004DC09111A6CEC7BC2093CD023093CE027E
:1027A0004093CF025093D00280916E00826080935C
:1027B0006E0097CE82E09091B100987F892B809334
:1027C000B100CBCF84E0F7CF91E021153105414036
:1027D000510578F068E478EE81E090E0A50194017D
:1027E0000E944623215031094109510969017A01AA
:1027F00093E08D81813009F0B0CF80918100887F96
:10280000892B80938100A9CFD0928900C092880043
:102810002093C6023093C7024093C8025093C90266
:1028200080916F00826080936F005BCEC092B30096
:102830002093BF023093C0024093C1025093C20262
:10284000809170008260809370004BCE21153140E2
:102850004105510508F0FECE83E07BCF82E02115D3
:1028600031404105510508F474CFC7CE83E0A3CFB2
:10287000813039F0823059F0811119C010926E0008
:10288000089580916F008D7F80936F0008958091EF
:1028900070008D7F8093700081E08093B000809104
:1028A000B100887F84608093B1001092B3000895D6
:1028B000CF93C82F80910001C8130DC0E8E6F0E067
:1028C00084919FEF909300010E94381460E08C2F58
:1028D000CF910C9424168FEFF7CF1F920F920FB663
:1028E0000F9211242F933F934F935F936F937F9396
:1028F0008F939F93AF93BF93EF93FF938091BF020A
:102900009091C002A091C102B091C202892B8A2B82
:102910008B2BD1F19091BC02E091BD02F091BE02EF
:102920008081892780838091BF029091C002A0910D
:10293000C102B091C2020097A105B105A1F09CF0BF
:102940008091BF029091C002A091C102B091C202D9
:102950000197A109B1098093BF029093C002A0938F
:10296000C102B093C202FF91EF91BF91AF919F91CD
:102970008F917F916F915F914F913F912F910F9028
:102980000FBE0F901F901895809100010E9458145F
:10299000EACF08958230D8F4E82FF0E0EE0FFF1F61
:1029A000EF5FFE4F71836083813041F08091690059
:1029B0008C7F482B40936900E89A089580916900C4
:1029C000440F440F837F482B40936900E99A089590
:1029D000823068F4813061F0E898E82FF0E0EE0F83
:1029E000FF1FEF5FFE4F89EC94E191838083089590
:1029F000E998F3CF1F920F920FB60F9211242F93E5
:102A00003F934F935F936F937F938F939F93AF9376
:102A1000BF93EF93FF93E0910101F09102010995BB
:102A2000FF91EF91BF91AF919F918F917F916F91A6
:102A30005F914F913F912F910F900FBE0F901F907C
:102A400018951F920F920FB60F9211242F933F9358
:102A50004F935F936F937F938F939F93AF93BF93A6
:102A6000EF93FF93E0910301F09104010995FF9129
:102A7000EF91BF91AF919F918F917F916F915F91F6
:102A80004F913F912F910F900FBE0F901F9018956F
:102A90008093050108958E3008F08E5090910501C5
:102AA0009295990F990F907C8770892B80937C0069
:102AB00080917A00806480937A0080917A0086FD0C
:102AC000FCCF809178009091790008951F93CF9367
:102AD000DF93182FEB0161E00E94EA15209739F48B
:102AE00060E0812FDF91CF911F910C942416CF3F8E
:102AF000D10511F461E0F5CFE12FF0E0E759FF4F88
:102B0000E491E43071F150F4E230E1F0E330F9F0B7
:102B1000E13081F0C038D1051CF3ECCFE73059F13A
:102B2000E830C1F78091B00080628093B000C0931C
:102B3000B40004C084B5806884BDC7BDDF91CF9167
:102B40001F91089584B5806284BDC8BDF7CF809180
:102B50008000806880938000D0938900C0938800B3
:102B6000EDCF80918000806280938000D0938B00B5
:102B7000C0938A00E3CF8091B00080688093B0005A
:102B8000C093B300DBCF843081F050F48230A9F0E1
:102B9000833079F4809180008F778093800008954E
:102BA000873071F0883091F00895809180008F7D9A
:102BB000F4CF84B58F7784BD089584B58F7DFBCF26
:102BC0008091B0008F778093B00008958091B0001D
:102BD0008F7DF9CFCF93DF9390E0FC01E358FF4F57
:102BE00024918F569F4FFC0184918115C9F090E08C
:102BF000880F991FFC01E754FF4FA591B591FC0187
:102C0000E155FF4FC591D5919FB761110CC0F89464
:102C10008C91209582238C938881282328839FBFC1
:102C2000DF91CF910895623051F4F8943C91822F56
:102C3000809583238C938881822B8883F0CFF894AE
:102C40008C91822B8C93EBCF1F93CF93DF93162F16
:102C5000282F30E0F901E759FF4F8491F901E3583B
:102C6000FF4FD491F901EF56FF4FC491C115A1F068
:102C700081110E94C315EC2FF0E0EE0FFF1FE1550C
:102C8000FF4FA591B5919FB7F8948C91111108C091
:102C9000D095D823DC939FBFDF91CF911F910895EA
:102CA0008D2B8C93F8CFCF93DF93282F30E0F90151
:102CB000E759FF4F8491F901E358FF4FD491F9018F
:102CC000EF56FF4FC491C11581F081110E94C315C9
:102CD000EC2FF0E0EE0FFF1FEB55FF4FA591B591E4
:102CE000EC91ED2381E0E11101C080E090E0DF9103
:102CF000CF9108951F921FB61F9211242F933F93D7
:102D00008F939F93AF93BF938091D1029091D20202
:102D1000A091D302B091D4023091D90223E0230FC5
:102D20002D3750F50196A11DB11D2093D902809336
:102D3000D1029093D202A093D302B093D402809197
:102D4000D5029091D602A091D702B091D8020196F7
:102D5000A11DB11D8093D5029093D602A093D702F6
:102D6000B093D802BF91AF919F918F913F912F91D6
:102D70001F901FBE1F90189526E8230F0296A11DD5
:102D8000B11DD3CF2FB7F8946091D1027091D202C8
:102D90008091D3029091D4022FBF08953FB7F89449
:102DA0008091D5029091D602A091D702B091D8021D
:102DB00026B5A89B05C02F3F19F00196A11DB11D96
:102DC0003FBFBA2FA92F982F8827BC01CD01620FD2
:102DD000711D811D911D42E0660F771F881F991F8D
:102DE0004A95D1F708958F929F92AF92BF92CF925A
:102DF000DF92EF92FF926B017C010E94CE164B0195
:102E00005C01C114D104E104F104E9F00E944C0218
:102E10000E94CE16681979098A099B09683E734099
:102E20008105910570F321E0C21AD108E108F1088B
:102E300088EE880E83E0981EA11CB11CC114D10439
:102E4000E104F10429F7FF90EF90DF90CF90BF905D
:102E5000AF909F908F9008959C01029740F0220FB1
:102E6000331F220F331FC90105970197F1F708950A
:102E7000789484B5826084BD84B5816084BD85B555
:102E8000826085BD85B5816085BDEEE6F0E080811C
:102E900081608083E1E8F0E010828081826080833D
:102EA000808181608083E0E8F0E0808181608083C0
:102EB000E1EBF0E0808184608083E0EBF0E08081F2
:102EC00081608083EAE7F0E0808184608083808194
:102ED000826080838081816080838081806880833C
:102EE0001092C1000895CF92DF92EF92FF920F935C
:102EF0001F93E82FF92F05C001501109210931094D
:102F000061F1908196239417B9F305C0015011091E
:102F10002109310911F1908196239413F7CFC12C27
:102F2000D12CE12CF12C0AC08FEFC81AD80AE80A7C
:102F3000F80A0C151D052E053F0579F080818623C2
:102F4000841791F36C2D7D2D8E2D9F2D1F910F9148
:102F5000FF90EF90DF90CF90089560E070E080E008
:102F600090E01F910F91FF90EF90DF90CF90089528
:102F7000CF92DF92EF92FF920F931F93CF93DF9345
:102F8000F82ED62FE42E07E010E0C0E087E0C82E30
:102F9000D12C61E08D2F0E9424168F2DE1101BC0D3
:102FA0000E9453169601201B310B01C0880F2A95F1
:102FB000EAF7C82B60E08D2F0E94241601501109FA
:102FC00040F78C2FDF91CF911F910F91FF90EF90E1
:102FD000DF90CF9008950E945316002E01C0880FF5
:102FE0000A94EAF7E6CFFF920F931F93CF93DF93F4
:102FF000182FD62FF42EC22F08E0F11016C06C2F18
:103000006170812F0E942416C69561E08D2F0E9469
:10301000241660E08D2F0E9424160A9571F7DF9127
:10302000CF911F910F91FF900895C7FB662760F91C
:10303000812F0E942416CC0FE8CF0F931F938B0192
:103040009C01011511052105310531F0C901B801B7
:103050001F910F910C94CA271F910F910895CF9241
:10306000DF92EF92FF926B017C01C114D104E10465
:10307000F10441F00E947B27A70196010E9468237A
:103080006B017C01C701B601FF90EF90DF90CF90FC
:1030900008958F929F92AF92BF92CF92DF92EF925C
:1030A000FF926B017C0149015A01C814D904EA045A
:1030B000FB0464F4C501B4016C197D098E099F09F4
:1030C0000E942F18C60ED71EE81EF91EC701B601B2
:1030D000FF90EF90DF90CF90BF90AF909F908F9038
:1030E00008954F925F926F927F92AF92BF92CF926C
:1030F000DF92EF92FF920F931F93CF93DF9300D055
:1031000000D0CDB7DEB729013A01A982BA82CB82BD
:10311000DC829B01AC0124193509460957098D89C8
:103120009E89AF89B88DBC01CD01A980BA80CB80C2
:10313000DC806A197B098C099D090E943623A8014D
:10314000970124193509460957090E946823C601C9
:10315000B501620F731F841F951F0F900F900F9082
:103160000F90DF91CF911F910F91FF90EF90DF9023
:10317000CF90BF90AF907F906F905F904F900895E9
:103180000895982F862F0895FC01808191810097E2
:1031900011F00C949E260895CF93DF93EC01888163
:1031A0009981009711F00E949E26198218821D8233
:1031B0001C821B821A82DF91CF910895EF92FF92B9
:1031C0000F931F93CF93DF93EC018B016F5F7F4FC2
:1031D000888199810E94D3277C0180E0E114F10469
:1031E00029F0F982E8821B830A8381E0DF91CF9185
:1031F0001F910F91FF90EF900895CF93DF93EC0113
:103200009B0188819981892B29F08A819B8186176E
:10321000970768F4B901CE010E94DE18811541F0CC
:103220008C819D81892B19F4E881F981108281E0DC
:10323000DF91CF910895EF92FF920F931F93CF9359
:10324000DF93EC017B018A01BA010E94FD18811114
:103250000BC0CE010E94CC18CE01DF91CF911F91FF
:103260000F91FF90EF9008950C831D83B701888123
:1032700099810E941E29F0CFCF93DF93FC01DB01DF
:10328000118210821382128215821482AB2B61F09C
:10329000EB0109900020E9F72197AE01461B570B7F
:1032A000DF91CF910C941B19DF91CF910895EF928C
:1032B000FF920F931F93CF93DF93EC017B018A0161
:1032C000BA010E94FD1881110BC0CE010E94CC18DA
:1032D000CE01DF91CF911F910F91FF90EF90089554
:1032E0000C831D83B701888199810E94D228F0CF79
:1032F0000F931F93CF93DF938C01EB01FC0180812F
:103300009181009791F0688179816115710559F07B
:1033100025E333E2232B39F0428153812C813D8117
:1033200042175307A0F40E949E2688819981F801D4
:10333000918380838A819B81938382838C819D8109
:1033400095838483198218821B821A8207C00E9487
:103350001E298C819D81F801958384831D821C82A6
:10336000DF91CF911F910F910895FC01118210827E
:1033700013821282158214820C947819FC01118236
:10338000108213821282158214820C947819CF93C2
:10339000DF93EC01FB018617970749F0608171818B
:1033A0006115710541F0448155810E941B19CE01C0
:1033B000DF91CF9108950E94CC18F9CFFC011182C2
:1033C000108213821282158214820C94C719CF9333
:1033D000DF93EC018617970711F00E947819CE0150
:1033E000DF91CF910895CF93DF93EC0168177907B0
:1033F00011F00E947819CE01DF91CF910895CF93FB
:10340000DF93D82FC92FFB01EF2B79F0DB010D9053
:103410000020E9F71197AD01461B570B0E941B19BD
:103420008D2F9C2FDF91CF9108950E94CC18F8CF5B
:10343000CF93DF9300D0CDB7DEB7FC0111821082AD
:10344000138212821582148269831A82BE016F5F11
:103450007F4F0E94FF190F900F90DF91CF91089539
:103460000F931F93CF93DF93CDB7DEB729970FB696
:10347000F894DEBF0FBECDBF8C01862FF8011182FC
:103480001082138212821582148250E0BE016F5F97
:103490007F4F90E00E94D929BE016F5F7F4FC80126
:1034A0000E94FF1929960FB6F894DEBF0FBECDBF5C
:1034B000DF91CF911F910F9108950F931F93CF9399
:1034C000DF93CDB7DEB762970FB6F894DEBF0FBEBD
:1034D000CDBF8C01CB01F8011182108213821282C0
:1034E0001582148250E0BE016F5F7F4F0E946729F2
:1034F000BE016F5F7F4FC8010E94FF1962960FB631
:10350000F894DEBF0FBECDBFDF91CF911F910F9119
:1035100008950F931F93CF93DF93CDB7DEB76197D5
:103520000FB6F894DEBF0FBECDBF8C01CB01F80102
:1035300011821082138212821582148250E0BE0121
:103540006F5F7F4F0E94D929BE016F5F7F4FC80117
:103550000E94FF1961960FB6F894DEBF0FBECDBF73
:10356000DF91CF911F910F9108950F931F93CF93E8
:10357000DF93CDB7DEB7A2970FB6F894DEBF0FBECC
:10358000CDBF8C01CB01BA01F801118210821382E8
:1035900012821582148230E0AE014F5F5F4F0E94AD
:1035A0007D29BE016F5F7F4FC8010E94FF19A2965F
:1035B0000FB6F894DEBF0FBECDBFDF91CF911F9144
:1035C0000F9108950F931F93CF93DF93CDB7DEB77D
:1035D000A1970FB6F894DEBF0FBECDBF8C01CB0113
:1035E000BA01F801118210821382128215821482AC
:1035F00030E0AE014F5F5F4F0E94AC29BE016F5FAC
:103600007F4FC8010E94FF19A1960FB6F894DEBF44
:103610000FBECDBFDF91CF911F910F9108958F9273
:103620009F92AF92BF92EF92FF920F931F93CF930F
:10363000DF93CDB7DEB7A1970FB6F894DEBF0FBE0C
:10364000CDBF7C01842FF701118210821382128278
:103650001582148242E0420F8E010F5F1F4F882EA9
:10366000952E5B01C501B4010E94E325BC01C70191
:103670000E94FF19A1960FB6F894DEBF0FBECDBF12
:10368000DF91CF911F910F91FF90EF90BF90AF907E
:103690009F908F9008950F931F93CF93DF93D82F10
:1036A000C92F8B016115710581F0CB010E94D928CA
:1036B000AC01B8018D2F9C2F0E9457198D2F9C2F84
:1036C000DF91CF911F910F9108950E94CC18F6CFF2
:1036D000FC011182108213821282158214820C94D2
:1036E0004B1BEF92FF920F931F93CF93DF93EC014D
:1036F0007B01672B41F480E0DF91CF911F910F9107
:10370000FF90EF90089541155105A1F00C811D81A6
:10371000040F151FB8010E94FD18811561F328815F
:1037200039818C819D81B701820F931F0E941E29D0
:103730001D830C8381E0E0CFFB01448155816081D2
:1037400071810C94711BFB01EF2B51F0DB010D908B
:103750000020E9F71197AD01461B570B0C94711B24
:1037600080E00895CF93DF9300D0CDB7DEB76983B3
:103770001A8241E050E0BE016F5F7F4F0E94711BD3
:103780000F900F90DF91CF910895EF92FF920F93DA
:103790001F93CF93DF9300D000D0CDB7DEB77C016D
:1037A000862F4AE08E010F5F1F4FB80190E00E9404
:1037B0007229F80101900020E9F73197AF01401B11
:1037C000510BB801C7010E94711B0F900F900F9011
:1037D0000F90DF91CF911F910F91FF90EF9008957F
:1037E000EF92FF920F931F93CF93DF93CDB7DEB786
:1037F00028970FB6F894DEBF0FBECDBF7C01CB017A
:103800004AE08E010F5F1F4FB8010E947229F80134
:1038100001900020E9F73197AF01401B510BB8012F
:10382000C7010E94711B28960FB6F894DEBF0FBE29
:10383000CDBFDF91CF911F910F91FF90EF90089531
:10384000EF92FF920F931F93CF93DF9300D000D09E
:1038500000D00F92CDB7DEB77C01CB014AE08E01DC
:103860000F5F1F4FB8010E94E429F801019000206A
:10387000E9F73197AF01401B510BB801C7010E9416
:10388000711B27960FB6F894DEBF0FBECDBFDF9138
:10389000CF911F910F91FF90EF900895EF92FF92BB
:1038A0000F931F93CF93DF93CDB7DEB72E970FB64D
:1038B000F894DEBF0FBECDBF7C01CB01BA012AE078
:1038C0008E010F5F1F4FA8010E948829F801019007
:1038D0000020E9F73197AF01401B510BB801C70138
:1038E0000E94711B2E960FB6F894DEBF0FBECDBF9F
:1038F000DF91CF911F910F91FF90EF900895EF927C
:10390000FF920F931F93CF93DF93CDB7DEB72D9721
:103910000FB6F894DEBF0FBECDBF7C01CB01BA015C
:103920002AE08E010F5F1F4FA8010E94B729F801FE
:1039300001900020E9F73197AF01401B510BB8010E
:10394000C7010E94711B2D960FB6F894DEBF0FBE03
:10395000CDBFDF91CF911F910F91FF90EF90089510
:103960008F929F92AF92BF92CF92DF92EF92FF928F
:103970000F931F93CF93DF93CDB7DEB764970FB646
:10398000F894DEBF0FBECDBF6C01842F8E010F5F98
:103990001F4F22E044E0882E952E5B01C501B40143
:1039A0000E94E325FC0101900020E9F73197AF0167
:1039B000481B590BBC01C6010E94711B64960FB6CF
:1039C000F894DEBF0FBECDBFDF91CF911F910F9155
:1039D000FF90EF90DF90CF90BF90AF909F908F902F
:1039E00008950F931F938A019B01B901A8011F91AC
:1039F0000F910C94B01CEF92FF920F931F93CF93F3
:103A0000DF93EC017B016115710541F480E0DF91EA
:103A1000CF911F910F91FF90EF900895CB010E94DD
:103A2000D9288C01892BA9F08C819D81080F191F41
:103A3000B801CE010E94FD18811541F3288139811A
:103A40008C819D81B701820F931F0E94D2281D8314
:103A50000C8381E0DCCFCF93DF93D82FC92FFB01FC
:103A600044815581608171810E94711B811104C064
:103A70008D2F9C2F0E94CC188D2F9C2FDF91CF91E2
:103A80000895CF93DF93D82FC92FFB01EF2B49F473
:103A90008D2F9C2F0E94CC188D2F9C2FDF91CF91C2
:103AA0000895DB010D900020E9F71197AD01461B49
:103AB000570B0E94711B811559F3EECFCF93DF9303
:103AC000D82FC92F0E94B21B811104C08D2F9C2FAB
:103AD0000E94CC188D2F9C2FDF91CF910895CF930A
:103AE000DF93D82FC92F0E94C51B811104C08D2FD1
:103AF0009C2F0E94CC188D2F9C2FDF91CF91089581
:103B0000CF93DF93D82FC92F0E94F01B811104C0DF
:103B10008D2F9C2F0E94CC188D2F9C2FDF91CF9141
:103B20000895CF93DF93D82FC92F0E94201C8111B5
:103B300004C08D2F9C2F0E94CC188D2F9C2FDF91BD
:103B4000CF910895CF93DF93D82FC92F0E944E1C99
:103B5000811104C08D2F9C2F0E94CC188D2F9C2F7B
:103B6000DF91CF910895CF93DF93D82FC92F0E9473
:103B70007F1C811104C08D2F9C2F0E94CC188D2F8B
:103B80009C2FDF91CF9108950F931F93CF93DF93D5
:103B9000D82FC92F8A019B01B901A8010E94B01C2E
:103BA000811104C08D2F9C2F0E94CC188D2F9C2F2B
:103BB000DF91CF911F910F9108950F931F938A0169
:103BC0009B01B901A8011F910F910C94C41DCF93C3
:103BD000DF93D82FC92F0E94FB1C811104C08D2FA9
:103BE0009C2F0E94CC188D2F9C2FDF91CF91089590
:103BF000FC01DB01808191816D917C91119700978F
:103C000059F061157105B9F424813581232BA9F090
:103C1000FC01808190E008956115710571F01496A2
:103C20008D919C91892B49F0FB01808190E09195C9
:103C30008195910908950C94152980E090E00895EC
:103C4000FC01DB012481358114968D919C9128170C
:103C5000390739F4CF010E94F81D9C0181E0232B24
:103C600009F080E00895DC01FB0114968D919C9190
:103C70001597892B49F491E0309721F080818115C7
:103C800009F090E0892F08950D90BC91A02DEF2BA5
:103C900019F491E08C91F3CFCD010E9415299C017C
:103CA00091E021153105ECCF0E94F81D97FB882784
:103CB00080F908950E94F81D9C0181E012161306F8
:103CC0000CF080E008950E94F81D9C0181E012161E
:103CD00013060CF480E008950E94F81D80959095DD
:103CE00097FB882780F90895CF92DF92EF92FF9299
:103CF0000F931F93CF93DF93DC01FB018617970788
:103D0000A1F014968D919C9115972481358182178D
:103D1000930749F5892B49F0D080C1800D911C9102
:103D2000F80181918F0181110AC081E0DF91CF916B
:103D30001F910F91FF90EF90DF90CF900895082E84
:103D4000000C990B0E94C2287C01CD2DDC2D89919D
:103D5000082E000C990B0E94C228E816F90619F4E7
:103D6000DC2ECD2EDDCF80E0E1CFDC01FB019A011E
:103D70004481558114968D919C911597841B950BC8
:103D80008217930788F08D919C91009769F060816C
:103D900071816115710541F0820F931F0E942529E1
:103DA0009C0181E0232B09F080E00895FC01DB01F8
:103DB0002481358114968D919C912817390728F01C
:103DC00040E050E0CF010C94B51E80E00895DC0186
:103DD000FB0114962D913C91159744815581241730
:103DE000350798F08D919C91009779F060817181F1
:103DF0006115710551F0241B350B820F931F0E9432
:103E000015299C0181E0232B09F080E00895FC0135
:103E1000848195816817790730F40190F081E02D55
:103E2000E60FF71F40830895FC0184819581681790
:103E3000790720F480819181009729F41092DA02A9
:103E40008AED92E00895860F971F0895FC01848102
:103E500095816817790748F480819181009729F04E
:103E6000860F971FFC018081089580E008950C94CF
:103E7000261FCF92DF92EF92FF920F931F93CF9363
:103E8000DF937C018B01D9014115510559F0611572
:103E9000710541F0FC01C481D5812C173D0758F014
:103EA000FB011082DF91CF911F910F91FF90EF9056
:103EB000DF90CF900895FA013197C21BD30BEC1716
:103EC000FD0708F4EF01F701608171816A0F7B1F24
:103ED000AE01C8010E943329C00FD11F1882E2CF62
:103EE0000F931F93CF93DF93FC0184819581481733
:103EF000590778F400811181062E000C770BC80158
:103F0000840F951F0E940A29EC01801B910BCD2B79
:103F100011F48FEF9FEFDF91CF911F910F910895D3
:103F200040E050E00C94701F0F931F93CF93DF93EA
:103F3000FC01DB01848195814817590770F40081E9
:103F400011816D917C91C801840F951F0E944D29AC
:103F5000EC01801B910BCD2B11F48FEF9FEFDF91C4
:103F6000CF911F910F91089540E050E00C94941F61
:103F7000BF92CF92DF92EF92FF920F931F93CF9356
:103F8000DF937C018A01DC0114968D919C91159739
:103F90004817590760F08FEF9FEFDF91CF911F9186
:103FA0000F91FF90EF90DF90CF90BF9008950F5F3B
:103FB0001F4FED91FC911197E00FF11FB08010821F
:103FC000CD90DC90062E000C770BC6010E94422992
:103FD000EC01F601E00FF11FB082892BE1F2F7014D
:103FE000808191819E01281B390BC901D6CFFC012C
:103FF00044815581415051090C94B81F8F929F9272
:10400000AF92BF92CF92DF92EF92FF920F931F93E6
:10401000CF93DF93FC016B018A01DB0114962D9194
:104020003C9121153105E1F1848195810097C1F121
:1040300082179307A8F14817590718F08C0101500F
:10404000110980809180C401DFEFCFEF5401A00EF1
:10405000B11EA816B90678F48D2F9C2FDF91CF9151
:104060001F910F91FF90EF90DF90CF90BF90AF9096
:104070009F908F900895F601608171810E944D2973
:104080007C01009749F39C0128193909021713078D
:1040900010F42D2F3C2FC7010196D22FC32FD9CF5B
:1040A000DFEFCFEFD9CFFC01DB01448155811496BE
:1040B0008D919C91481B590BCF010C94FE1FAF9220
:1040C000BF92CF92DF92EF92FF920F931F93CF9305
:1040D000DF936C015B017A0189012417350720F019
:1040E000812F8A01E22EF82E6BED71E0C6010E944D
:1040F0003C19D5011496CD91DC910C171D07C8F41D
:10410000EC16FD0608F4E701D501ED91FC9111973D
:10411000EC0FFD1FF08010826D917C91600F711F7C
:10412000C6010E94FF19D501ED91FC91EC0FFD1F16
:10413000F082C601DF91CF911F910F91FF90EF9018
:10414000DF90CF90BF90AF900895DC01ED91FC918E
:10415000309719F08191811101C008958613FACF2B
:10416000DF014E93F7CF2F923F924F925F926F9263
:104170007F928F929F92AF92BF92CF92DF92EF92F7
:10418000FF920F931F93CF93DF9300D000D000D006
:10419000CDB7DEB78D839E837B018A01AD81BE8161
:1041A00014960D90BC91A02DBA83A983AB2B09F472
:1041B00093C0FB01848095808114910409F48CC024
:1041C000DA0114968D919C916C01C818D908ED8183
:1041D000FE81608071808815990509F474C0D7FC50
:1041E000E0C0FB0120803180A980BA80B101C30109
:1041F0000E944D298B839C83EB81FC81EF2B09F07E
:10420000D2C089819A818A159B0509F465C0AD8168
:10421000BE8112968D919C918A159B0508F4CAC0A7
:10422000ED81FE81448155814150510957FD54C0B3
:10423000B7018D819E810E94FE1F2C0197FD4CC00D
:10424000D70114962D913C91280F391FED81FE81E5
:1042500080819181820F931F44815581421B530BB2
:10426000BC018C0D9D1D0E94F828AD81BE81149665
:104270008D919C9115978C0D9D1D15969C938E93F9
:104280001497ED91FC911197E80FF91F10828D9111
:104290009C91F8016081718144815581840D951D47
:1042A0000E94EF28A201C0CFD8016D917C91119797
:1042B00014964D915C91C5010E94EF28F80164802D
:1042C00075806A0C7B1CD7016D917C91C3010E94A3
:1042D0004D295C01892B41F70F900F900F900F90A3
:1042E0000F900F90DF91CF911F910F91FF90EF9062
:1042F000DF90CF90BF90AF909F908F907F906F9006
:104300005F904F903F902F9008955101A618B708E5
:10431000A501B301C4010E94EF28A80CB91CD80163
:104320006D917C91119714964D915C91C5010E94FD
:10433000EF28F801848095808A0C9B1CD701149685
:104340006D907C90620C731CED81FE81848195815F
:104350008C0D9D1D95838483D7016D917C91C30144
:104360000E944D291C01892B81F6B301C4010F90D5
:104370000F900F900F900F900F90DF91CF911F91A2
:104380000F91FF90EF90DF90CF90BF90AF909F90F4
:104390008F907F906F905F904F903F902F900C94F4
:1043A0001E294301D9CF6B807C80680C791CAC0C32
:1043B000BD1C1CCFB5018D819E810E94DE1881112C
:1043C0002FCF8ACFCF93DF93EC019B01FA014C8171
:1043D0005D816417750700F53097F1F0BA01621B33
:1043E000730BE617F70708F4BF0188819981461B14
:1043F000570B5D834C83421B530B620F731F680F77
:10440000791F820F931F0E943329E881F9818C81E3
:104410009D81E80FF91F1082DF91CF9108954FEF32
:104420005FEF0C94E221CF93DF93FC01C081D18137
:10443000209719F08991811103C0DF91CF910895E0
:10444000082E000C990B0E94C228FE018293F2CF25
:10445000CF93DF93FC01C081D181209719F089911E
:10446000811103C0DF91CF910895082E000C990BA4
:104470000E94CA28FE018293F2CFAF92BF92CF92E0
:10448000DF92EF92FF920F931F93CF93DF938C01F4
:10449000DC01ED90FC901197E114F104B9F1149650
:1044A000CD91DC91209791F157016501F501819142
:1044B0005F01082E000C990B0E94B928892BA9F7DF
:1044C0002197CE0DDF1D8881082E000C990B0E94CC
:1044D000B928892B31F5AE014F5F5F4F4C195D094B
:1044E000D80115965C934E931497EC14FD0420F4B8
:1044F000B601C7010E94EF28D801ED91FC911197F8
:1045000014968D919C91E80FF91F1082DF91CF9145
:104510001F910F91FF90EF90DF90CF90BF90AF90E1
:104520000895CC15DD05B8F22197CDCFFC0180812F
:104530009181009711F00C94922860E070E0CB011B
:104540000895FC0180819181009711F00C948E28D0
:1045500060E070E0CB0108950C94A1220E948928AC
:10456000E4EFF1E01382128288EE93E0A0E0B0E085
:1045700084839583A683B78385E191E091838083CB
:1045800085EC90E09587848784EC90E09787868718
:1045900080EC90E0918B808B81EC90E0938B828B10
:1045A00082EC90E0958B848B86EC90E0978B868BE9
:1045B000118E128E138E148E089508950E9438174E
:1045C00026E040E855E260E070E084EF91E00E9470
:1045D0006B01CC24C39484E6E82E00E010E02AE0CE
:1045E00049E060E08CE992E00E943507811107C044
:1045F00069E271E084EF91E00E94CF0AFFCF60E0B2
:104600008CE992E00E945106811531F061E972E077
:104610008CE992E00E9444050E941203F0CF8FEFD4
:104620009FEF9093B2028093B102089580E090E0F2
:1046300008950895CF93DF93EC01DB01AB2B81F05C
:10464000FB0101900020E9F73197AF01461B570BA2
:10465000E881F9810280F381E02DDF91CF91099407
:1046600080E090E0DF91CF9108950895DB018F9372
:104670009F930E948723BF91AF91A29F800D911DB0
:10468000A39F900DB29F900D11240895A1E21A2EC0
:10469000AA1BBB1BFD010DC0AA1FBB1FEE1FFF1FE6
:1046A000A217B307E407F50720F0A21BB30BE40B36
:1046B000F50B661F771F881F991F1A9469F760957D
:1046C0007095809590959B01AC01BD01CF01089537
:1046D000052E97FB1EF400940E947F2357FD07D000
:1046E0000E94462307FC03D04EF40C947F23509580
:1046F0004095309521953F4F4F4F5F4F08959095CE
:104700008095709561957F4F8F4F9F4F08950E94C0
:104710009823A59F900DB49F900DA49F800D911D8F
:1047200011240895EE0FFF1F0590F491E02D0994D8
:10473000A29FB001B39FC001A39F700D811D1124E2
:10474000911DB29F700D811D1124911D0895505827
:10475000BB27AA270E94BF230C9432250E94242540
:1047600038F00E942B2520F039F49F3F19F426F4ED
:104770000C9421250EF4E095E7FB0C941B25E92F02
:104780000E94432558F3BA176207730784079507F9
:1047900020F079F4A6F50C9465250EF4E0950B2E27
:1047A000BA2FA02D0B01B90190010C01CA01A00183
:1047B0001124FF27591B99F0593F50F4503E68F1DE
:1047C0001A16F040A22F232F342F4427585FF3CF1F
:1047D000469537952795A795F0405395C9F77EF4F0
:1047E0001F16BA0B620B730B840BBAF09150A1F039
:1047F000FF0FBB1F661F771F881FC2F70EC0BA0FBF
:10480000621F731F841F48F4879577956795B79546
:10481000F7959E3F08F0B0CF9395880F08F0992741
:10482000EE0F9795879508950E94F72408F481E08C
:1048300008950E942D240C9432250E942B2558F0B7
:104840000E94242540F029F45F3F29F00C941B2599
:1048500051110C9466250C9421250E94432568F380
:104860009923B1F3552391F3951B550BBB27AA2729
:1048700062177307840738F09F5F5F4F220F331F63
:10488000441FAA1FA9F335D00E2E3AF0E0E832D02B
:1048900091505040E695001CCAF72BD0FE2F29D02E
:1048A000660F771F881FBB1F261737074807AB0700
:1048B000B0E809F0BB0B802DBF01FF2793585F4F75
:1048C0003AF09E3F510578F00C941B250C94662518
:1048D0005F3FE4F3983ED4F3869577956795B79557
:1048E000F7959F5FC9F7880F911D9695879597F962
:1048F0000895E1E0660F771F881FBB1F62177307DB
:104900008407BA0720F0621B730B840BBA0BEE1FEF
:1049100088F7E09508950E944B2588F09F5798F0FE
:10492000B92F9927B751B0F0E1F0660F771F881FB4
:10493000991F1AF0BA95C9F714C0B13091F00E94CE
:104940006525B1E008950C946525672F782F882799
:10495000B85F39F0B93FCCF3869577956795B395F5
:10496000D9F73EF490958095709561957F4F8F4F64
:104970009F4F0895E89409C097FB3EF49095809569
:10498000709561957F4F8F4F9F4F9923A9F0F92F15
:1049900096E9BB279395F695879577956795B79593
:1049A000F111F8CFFAF4BB0F11F460FF1BC06F5F79
:1049B0007F4F8F4F9F4F16C0882311F096E911C08B
:1049C000772321F09EE8872F762F05C0662371F0AC
:1049D00096E8862F70E060E02AF09A95660F771FC0
:1049E000881FDAF7880F9695879597F90895990F9C
:1049F0000008550FAA0BE0E8FEEF16161706E807A9
:104A0000F907C0F012161306E407F50798F0621BC9
:104A1000730B840B950B39F40A2661F0232B242B9E
:104A2000252B21F408950A2609F4A140A6958FEFBD
:104A3000811D811D089597F99F6780E870E060E00F
:104A400008959FEF80EC089500240A941616170627
:104A500018060906089500240A941216130614066F
:104A600005060895092E0394000C11F4882352F0D2
:104A7000BB0F40F4BF2B11F460FF04C06F5F7F4F8A
:104A80008F4F9F4F089557FD9058440F551F59F071
:104A90005F3F71F04795880F97FB991F61F09F3F2B
:104AA00079F087950895121613061406551FF2CF54
:104AB0004695F1DF08C0161617061806991FF1CFA4
:104AC00086957105610508940895E894BB276627CB
:104AD0007727CB0197F908950E94F72408F48FEF08
:104AE00008950E9484250C9432250E94242538F0D4
:104AF0000E942B2520F0952311F00C941B250C947B
:104B0000212511240C9466250E94432570F3959F5E
:104B1000C1F3950F50E0551F629FF001729FBB27B4
:104B2000F00DB11D639FAA27F00DB11DAA1F649F50
:104B30006627B00DA11D661F829F2227B00DA11D03
:104B4000621F739FB00DA11D621F839FA00D611D89
:104B5000221F749F3327A00D611D231F849F600DAA
:104B6000211D822F762F6A2F11249F5750409AF0D3
:104B7000F1F088234AF0EE0FFF1FBB1F661F771F5F
:104B8000881F91505040A9F79E3F510580F00C942A
:104B90001B250C9466255F3FE4F3983ED4F386957D
:104BA00077956795B795F795E7959F5FC1F7FE2BCA
:104BB000880F911D9695879597F908950E94F7247F
:104BC000880B990B08958F929F92AF92BF92EF92AC
:104BD0000F931F93CF93322FC02F54E147FF54E020
:104BE000242F27FD2195E52E032F4C2F512F4B010C
:104BF0005C01C501B4010E94FE298C2F912FCF9139
:104C00001F910F91EF90BF90AF909F908F9008955C
:104C10000F931F93CF93DF939C01029710F422E030
:104C200030E0E091DB02F091DC0280E090E0A0E077
:104C3000B0E0309791F4009709F448C0821B930BC1
:104C400084309105D0F58A819B816115710581F1D0
:104C5000FB0193838283FE0111C040815181028157
:104C6000138142175307D8F04217530799F410974E
:104C700061F012960C93129713961C933296CF0103
:104C8000DF91CF911F910F9108950093DB02109354
:104C9000DC02F4CF009751F04817590738F0AC0107
:104CA000DB01CA01BD01DF01F801C3CFEF01F9CF7C
:104CB0009093DC028093DB02CECFFE01E80FF91F58
:104CC00021933193029799838883D9CF4091DD0254
:104CD0005091DE024115510541F440910801509177
:104CE00009015093DE024093DD028091060190910C
:104CF0000701009741F48DB79EB760910A0170914A
:104D00000B01861B970B4817590708F0B8CF841B77
:104D1000950B8217930708F4B2CFB9016E5F7F4FEE
:104D20008617970708F4ABCF640F751F7093DE02E8
:104D30006093DD02FA0121933193A1CFCF93DF93EA
:104D40009C010097E9F0FC01329713821282C09116
:104D5000DB02D091DC02DE0180E090E02097A1F43C
:104D600080819181280F391F8091DD029091DE02B0
:104D70008217930709F068C0F093DE02E093DD022A
:104D8000DF91CF910895DA01AE17BF0708F042C056
:104D900012964D915C911397CD014115510599F7EC
:104DA000DC011396FC93EE9312974D915D919D015A
:104DB000240F351FE217F30781F4208131812E5F24
:104DC0003F4F240F351FDC0111963C932E93228117
:104DD000338113963C932E931297E0E0F0E08A81A2
:104DE0009B810097B1F5DE018D919D918A0F9B1FEC
:104DF0002091DD023091DE022817390709F630973D
:104E000059F51092DC021092DB02D093DE02C093BF
:104E1000DD02B6CFB383A28340815181240F351FB9
:104E2000A217B30771F44E5F5F4F2D913C9111971C
:104E3000240F351F3183208312962D913C913383AB
:104E40002283009709F0ACCFF093DC02E093DB0201
:104E500097CFFE01EC01C3CF13821282D6CF8F927F
:104E60009F92AF92BF92CF92DF92EF92FF92CF9339
:104E7000DF93EC01688179818A819B8161157105DD
:104E80008105910521F464E279ED8BE597E02DE150
:104E900033EF41E050E00E94682349015A019B0131
:104EA000AC01A7EAB1E40E9487236B017C01ACEE60
:104EB000B4EFA50194010E94AB2DC60ED71EE81ECB
:104EC000F91EF7FE06C081E0C81AD108E10880E8A3
:104ED000F80AC882D982EA82FB82C701B6019F77AD
:104EE000DF91CF91FF90EF90DF90CF90BF90AF9088
:104EF0009F908F9008958F929F92AF92BF92CF9282
:104F0000DF92EF92FF9260910C0170910D01809100
:104F10000E0190910F01611571058105910521F434
:104F200064E279ED8BE597E02DE133EF41E050E06D
:104F30000E94682349015A019B01AC01A7EAB1E430
:104F40000E9487236B017C01ACEEB4EFA5019401B4
:104F50000E94AB2DC60ED71EE81EF91EF7FE06C036
:104F600081E0C81AD108E10880E8F80AC0920C0173
:104F7000D0920D01E0920E01F0920F01C701B6012F
:104F80009F77FF90EF90DF90CF90BF90AF909F9072
:104F90008F90089560930C0170930D0180930E0122
:104FA00090930F010895A0E0B0E0E9EDF7E20C94D2
:104FB000B22D7C019B01009751F4CB010E94082681
:104FC000EC01CE01CDB7DEB7E0E10C94CE2DFC01B3
:104FD000E60FF71FDC011297C0E0D0E0EA17FB07ED
:104FE00080F30D911C91119706171707A8F0053053
:104FF000110580F0C80104978617970758F0061B23
:10500000170B02501109019311936D937C93CF01FB
:105010000E949E26E701D5CF4B01801A910A5C01C0
:10502000A00EB11EC091DB02D091DC02412C512CAC
:1050300060E070E0209729F58091DD029091DE021A
:105040008A159B0509F056C04216530608F052C057
:105050008091060190910701009741F48DB79EB7AA
:1050600040910A0150910B01841B950BE817F90739
:1050700008F0A7CFF093DE02E093DD022D933C937E
:10508000C9CF888199816A807B80CA15DB0559F573
:105090006C0142E0C40ED11CC814D90420F1A8014F
:1050A000421B530B480F591FEA012296259778F0AF
:1050B00062827382518340832D933C936115710505
:1050C00069F0DB011396FC93EE931297A3CF98013E
:1050D0002E5F3F4F280F391FF301EECFF093DC0214
:1050E000E093DB0297CF4816590608F42C01BE0165
:1050F000E301A0CFC9010E940826EC01009709F442
:1051000060CFA801B7010E94EF28C7010E949E2628
:1051100058CF81E090E0F8940C94E72D662777272C
:105120000C94602B1F93FC0199278827BC01E894FD
:1051300011911032E9F3193010F01E30C8F31B3210
:1051400051F01D3249F4689406C00E949729610FFE
:10515000711D811D911D119110531A30B0F33EF451
:1051600090958095709561957F4F8F4F9F4F1F91C0
:10517000089591110C947D2D803219F0895085503D
:10518000C8F708959111089581548A5108F4805EFA
:10519000855A08959111089581568A5108F48052D4
:1051A00085580895FB01DC0105900D920020E1F780
:1051B0000895FC0105900020E9F7809590958E0FE9
:1051C0009F1F0895FB01DC0104C08D91019080199F
:1051D00021F441505040C8F7881B990B0895FB01FA
:1051E000DC0102C001900D9241505040D8F7089563
:1051F0006817790768F4FB01DC01E40FF51FA40FC1
:10520000B51F02C002900E9241505040D8F7089549
:105210000C94EF28FC018191861721F08823D9F79F
:10522000992708953197CF010895FB01DC018D91F5
:10523000019080190110D9F3990B0895FB01DC014D
:1052400001900D920020E1F70895FB01DC0141502F
:10525000504030F08D910190801919F40020B9F779
:10526000881B990B0895FB01DC014150504048F028
:1052700001900D920020C9F701C01D92415050408D
:10528000E0F70895FC0181E090E00190061609F432
:10529000CF010020D1F701970895FB0151915523CB
:1052A000A9F0BF01DC014D9145174111E1F759F417
:1052B000CD010190002049F04D9140154111C9F3F5
:1052C000FB014111EFCF81E090E001970895453255
:1052D000510520F4423010F00C947229FB01108229
:1052E000CB010895BB274A3031F4992322F4BDE263
:1052F000909581959F4F0C94E5292532310520F436
:10530000223010F00C948829FA011082CA01089505
:10531000BB272A3051F4992342F4BDE29095809541
:10532000709561957F4F8F4F9F4F0C94B829592FDF
:10533000482F372F262F660F771F881F991F660F5C
:10534000771F881F991F620F731F841F951F660F99
:10535000771F881F991F08952532310520F42230C8
:1053600010F00C94B729FA011082CA010895BB27E6
:10537000FA01A62F6217710581059105330B30FBE9
:1053800066F0AA27660F771F881F991FAA1FA2170A
:1053900010F0A21B63953850A9F7A05DAA3308F05E
:1053A000A95DA19336F7B111B1931082CA010C9493
:1053B000982D4532510520F4423010F00C94E42928
:1053C000FB011082CB010895BB27FB015527AA27BB
:1053D000880F991FAA1FA41710F0A41B8395505182
:1053E000B9F7A05DAA3308F0A95DA193009779F7FA
:1053F000B111B1931192CB010C94982DA0E1B0E0C2
:10540000E4E0FAE20C94B02D6A01122FF02E202F66
:105410003CE3031708F02BE32F5F288B022F27E0D4
:10542000AE014F5F5F4F6C877D878E879F876C854E
:105430007D858E859F850E94A52C5C019981892F91
:105440008970813039F0E0FA882785F9E1FE03C0E0
:105450008BE201C08DE2292F2870BE2DB07193FF21
:1054600044C094E0811101C093E09117C8F4191B66
:10547000B11519F1811519F0F60181936F01C6017B
:10548000039631E62EE6E2FE02C031E42EE4F60198
:10549000208331832283212F382F492F50E219C0D6
:1054A00010E0E6CFF90141932F0191509F01911136
:1054B000F9CFC10ED11C10E0DDCF912F960140E253
:1054C000F6CF632E742EF30151933F0121503E2FEE
:1054D000472D2111F6CF810F911DFC0110828EEF17
:1054E0009FEF6096E2E10C94CC2DA92FA47092FF5F
:1054F0003EC094E0811101C093E0911710F4212F78
:10550000291BB11529F1811519F0F60181936F015D
:10551000C601039659E64EE636E6E2FE03C059E4BC
:105520004EE436E4F601508341833283322FAC01DE
:1055300060E218C0832E942EF40151934F019150D4
:105540003E2F492D9111F6CFC20ED11C20E0DBCFAA
:10555000922F3C2D4D2D50E2F5CFFA0161931F01A2
:105560003150AF013111F9CF820F911DB6CF9501A6
:10557000B7FE02C020E030E061E070E0811102C0BF
:1055800060E070E0A9014F5F5F4F460F571F6F2D1E
:1055900070E0FB013196F11002C0E0E0F0E04E0F48
:1055A0005F1F4117510514F4A12FA41B4E2D487104
:1055B000411155C0F6014A2F50E241114DC0CA0EAB
:1055C000D11CA0E0811531F0F6018193A42F6F0169
:1055D000B11108C0F6018A2F40E3811145C0CA0EFF
:1055E000D11CA0E088898A0D5A81B92FB07194FF2F
:1055F00003C0513309F481501816CCF5893008F0F6
:1056000088E0FE013196EA0DFB1D4F01821A930AD4
:105610007501E81AF1087195619571091EE2A216EB
:10562000B3063CF1E216F30624F5F4014181215062
:105630003109C6010196FFEF8F1A9F0A2617370717
:10564000D4F0F60140832F3F320721F4C6010296C1
:10565000F60111836C01E3CF51934150AECF811518
:1056600009F4B6CF4A2FB0CF41938150B6CF81E035
:10567000C8CF40E3DCCFA216B30631F4563398F41A
:10568000553311F4B11579F0F60140832A2F382FE4
:10569000492F50E2211109C08A0F911DFC0110828F
:1056A00080E090E01ECF41E3EFCF3A874B87EA8559
:1056B000FB855193FB87EA8721503A854B85EACFDA
:1056C000A0E0B0E0E6E6FBE20C94B22DEC016B0149
:1056D0006115710519F0FB01918380837E0121968C
:1056E000F7010081802F90E00E94B9285C01892B8E
:1056F000A9F70D3291F5C701029608817E01EC01F0
:1057000011E043E050E06AED7BE5C7010E94802D87
:10571000892B61F522967E0145E050E065ED7BE541
:10572000CE010E94802D892B19F425E0E20EF11C98
:10573000C114D10419F0F601F182E082412C512C00
:10574000D0E86D2E77247A94111126C0412C512C6B
:1057500080E8682E8FE7782E1FC00B3229F4C7012E
:10576000029608817E01EC0110E0CBCF43E050E0CF
:1057700062ED7BE5C7010E94802D892BA1F4C11445
:10578000D10421F02296F601D183C083412C512C03
:10579000C0EC6C2ECFE77C2EC301B201CDB7DEB7D3
:1057A000E0E10C94CE2DE12CF12C60E070E0CB0117
:1057B00000530A3058F5E12FE260212F287012FFC4
:1057C00008C0211103C0FFEFEF1AFF0A09911E2F35
:1057D000EFCF211519F021E0E21AF108A5E0B0E0C1
:1057E0009B01AC010E948723660F771F881F991FBA
:1057F000600F711D811D911D683949E97407840787
:1058000049E1940718F3E12FE660E0CF0E3F29F459
:1058100013FD3BC0E12FE860D9CF0F7D0531A9F51D
:10582000E881ED3241F410619E012E5F3F4FE98126
:1058300042E050E007C09E01EB32B9F32F5F3F4FCB
:1058400041E050E0E053F5E0E901C41BD50BEA303C
:10585000E0F440E8A4164CE0B40654F4FA9DA0012C
:10586000FB9D500D1124440F551F5A01AE0EB11C63
:10587000E901E991E053EA3008F457C014FF03C08E
:10588000B194A194B108EA0CFB1C11FF07C0C1142C
:10589000D10421F02197F601D183C0830E94BA245C
:1058A0002B013C011370133021F477FA709477F8D0
:1058B000709420E030E0A901C301B2010E941424D9
:1058C000811509F469CFC3E0DDE5F7FE05C0F19469
:1058D000E194F108CBEEDCE5530142016E01F8E101
:1058E000CF1AD10800E210E024013501E016F106DC
:1058F000F4F4249715950795CC15DD05A9F78A2DA5
:10590000880F8B2D881F8F3F49F020E030E0A901E0
:10591000C501B4010E94142481113ECF82E290E0BF
:105920009093E0028093DF0237CF9E0192CFFE0179
:105930006591759185919591A50194010E947125BC
:105940004B015C01E01AF10ACFCF283008F027E0C4
:105950003327DA01990F311D87FD916000966105AB
:10596000710539F432602E5F3D9330E32A95E1F7FB
:1059700008959F3F30F080387105610509F03C5F64
:105980003C5F3D93913008F08068911DDF93CF9389
:105990001F930F93FF92EF92192F987F9695E92FFF
:1059A00096959695E90FFF27E95CF34A99273327E7
:1059B000EE24FF24A701E70105900894079428F43A
:1059C000360FE71EF81E491F511D660F771F881FEF
:1059D000991F0694A1F70590079428F4E70EF81E86
:1059E000491F561FC11D770F881F991F661F0694F8
:1059F000A1F70590079428F4F80E491F561FC71FFA
:105A0000D11D880F991F661F771F0694A1F7059077
:105A1000079420F4490F561FC71FD81F990F661F00
:105A2000771F881F0694A9F784911095177041F08D
:105A3000D695C79557954795F794E7941A95C1F76A
:105A4000EDEDFBE568941590159135916591959173
:105A500005907FE27395E118F10A430B560BC90BD1
:105A6000D009C0F7E10CF11E431F561FC91FD01DFE
:105A70007EF4703311F48A95E6CFE894015030F04B
:105A8000080F0AF40027021708F4202F2395022F8D
:105A90007A3328F079E37D932A95E9F710C07D9356
:105AA0002A9589F6069497956795379517951794D3
:105AB000E118F10A430B560BC90BD00998F0239556
:105AC0007E9173957A3308F070E37C932013B8F7D6
:105AD0007E9170617D9330F0839571E37D9370E3E7
